:020000040800F2
:1000000000180020E94300089D0400089F04000830
:1000100000000000000000000000000000000000E0
:10002000000000000000000000000000A104000823
:100030000000000000000000A3040008A504000860
:1000400069440008694400086944000869440008DC
:1000500069440008694400086944000869440008CC
:1000600069440008694400086944000869440008BC
:1000700069440008694400086944000869440008AC
:100080006944000800000000000000006944000806
:100090000000000069440008694400086944000841
:1000A0000000000069440008694400086944000831
:1000B000694400080000000069440008AD0400081D
:1000C000002243088B4274D303098B425FD3030A97
:1000D0008B4244D3030B8B4228D3030C8B420DD3AA
:1000E000FF22090212BA030C8B4202D31212090238
:1000F00065D0030B8B4219D300E0090AC30B8B4276
:1001000001D3CB03C01A5241830B8B4201D38B0323
:10011000C01A5241430B8B4201D34B03C01A5241C8
:10012000030B8B4201D30B03C01A5241C30A8B420B
:1001300001D3CB02C01A5241830A8B4201D38B02F6
:10014000C01A5241430A8B4201D34B02C01A52419A
:10015000030A8B4201D30B02C01A5241CDD2C3090C
:100160008B4201D3CB01C01A524183098B4201D388
:100170008B01C01A524143098B4201D34B01C01A73
:10018000524103098B4201D30B01C01A5241C308EB
:100190008B4201D3CB00C01A524183088B4201D35A
:1001A0008B00C01A524143088B4201D34B00C01A46
:1001B0005241411A00D20146524110467047FFE7B2
:1001C00001B5002000F006F802BDC0460029F7D0B6
:1001D00076E770477047C04610B5064C2378002B71
:1001E00007D1054B002B02D0044800E000BF0123DB
:1001F000237010BD7C01002000000000C4440008F2
:10020000044B10B5002B03D00349044800E000BFA5
:1002100010BDC0460000000080010020C44400085A
:10022000002101E0013109B203290BDC0023042B7A
:10023000F8DC8A0052189A18825C582A04D00133DC
:100240001BB2F4E7002070470120FCE710B588B02E
:100250001422002103A804F008F9134B5A698021E5
:1002600089020A435A615A690A400192019A5A69FD
:100270008021C9020A435A615B690B400293029BC9
:100280009024E40500221F21200000F093FA1F2390
:1002900003931E3B049300230593069303A92000B8
:1002A00000F0CAF908B010BD0010024072B6FEE7B7
:1002B00000B58BB00822002108A804F0D6F81C2253
:1002C000002101A804F0D1F81A481B4B0360002359
:1002D00043608360194AC2600361836101F074FF67
:1002E000002820D1002308930993124808A902F09E
:1002F0004BF8002819D160230193114B029300237E
:10030000039305930B480C2201A901F0C5FF0028B7
:100310000DD108480268D3690A490B40D36100F047
:1003200095F80BB000BDFFF7C1FFFFF7BFFFFFF768
:10033000BDFFC04698010020000400407017000077
:10034000B80B0000FFF7FFFF00B599B03422002181
:100350000BA804F08AF81022002107A804F085F801
:100360001822002101A804F080F820230B931F3BE2
:1003700013930BA801F008FA002818D1072307935C
:10038000043B0893002309930A93012107A801F075
:10039000D9FC00280DD180239B02019300230693F2
:1003A00001A801F071FD002805D119B000BDFFF7CB
:1003B0007DFFFFF77BFFFFF779FF00B599B000F0F5
:1003C000A7F8FFF7C1FFFFF741FFFFF771FF03F049
:1003D000D3FD01A8FFF724FFFA20800000F0BAF84F
:1003E000F7E7000082B00C4B996901221143996133
:1003F00099690A400092009ADA69802149050A4306
:10040000DA61DB690B400193019B044A13681021F8
:100410000B43136002B0704700100240000001401F
:1004200082B00268074B9A4201D002B07047064A78
:10043000D16902231943D161D26913400193019B11
:10044000F3E7C046000400400010024010B586B03B
:1004500004001422002101A804F007F822680C4BC4
:100460009A4201D006B010BD0A4B5A698021C902D8
:100470000A435A615B690B400093009B022301937E
:100480000293013B059301A9034800F0D5F8E9E781
:10049000000400400010024000040048FEE7FEE7B0
:1004A0007047704710B500F043F810BD10B5024812
:1004B00000F03EFF10BDC0466C07002070470000F2
:1004C00010B504000F4B1978FA208000FFF7F8FDF3
:1004D00001000D4B1868FFF7F3FD00F0A9F80028A4
:1004E0000DD1032C01D901200AE0013000222100A6
:1004F000404200F08DF8054B1C60002000E0012018
:1005000010BDC046040000200000002008000020AC
:1005100010B5064A136810210B4313600320FFF740
:10052000CFFFFFF75FFF002010BDC0460020024054
:10053000034A1168034B1B785B1813607047C04671
:10054000E001002004000020014B18687047C046FD
:10055000E001002070B50400FFF7F6FF0500631C02
:1005600002D0044B1B78E418FFF7EEFF401BA042BB
:10057000FAD370BD0400002070B5002811DB830899
:10058000134DC0339B005C5903221040C000FC3265
:1005900016008640B44389010A40824022435A51E2
:1005A00070BD0F230340083B9B0806339B00094A9C
:1005B000944663445C6803221040C000FC3215007E
:1005C0008540AC4389010A40824022435A60E7E7F4
:1005D00000E100E000ED00E0013880235B04984278
:1005E0000FD2094A50600948036A1B021B0AC02146
:1005F00009060B4303620023936007331360002056
:1006000070470120FCE7C04610E000E000ED00E08C
:1006100010B5FFF7B1FF10BD002805DB1F22024017
:1006200001239340014A13607047C04600E100E097
:1006300010B5FFF7D1FF10BDF0B583B0002356E031
:1006400086685F000324BC40A643CC68BC403443AA
:100650008460446894434E683609012232409A40CF
:100660002243426053E0DE080836B60037580532B0
:100670001A4092000F249440A7430C699440220032
:100680003A43325056E0022600E00026A6403400ED
:100690003C4302329200424E9451424A9768EA43E8
:1006A0003E00AE434C68E40201D53E002E433D4C73
:1006B000A660E7683E0016404C68A40201D53E00E3
:1006C0002E43384CE66067683E0016404C68A40331
:1006D00001D53E002E43334C6660266832404C689C
:1006E000E40301D52A0032432E4C226001330C680A
:1006F0002200DA4051D001229A40250015401442D0
:10070000F4D04E6803243440013C012C98D94C6845
:1007100003222240032A08D0C4685E000322B240AC
:1007200094438A68B2402243C2604C68032222404C
:10073000022A98D004685E0003221700B740BC4329
:100740004F683A40B240224302604C68C022920295
:100750001442CBD0144CA66901221643A661A469A9
:1007600022400192019A9A08941CA4000C4EA759A9
:1007700003241C40A4000F26A640B7439026F6058C
:10078000B04282D0094EB04205D0094EB04200D1ED
:1007900079E705267AE7012678E703B0F0BDC04681
:1007A0000000014000040140001002400004004825
:1007B00000080048002A01D0816170478162FCE78F
:1007C00070B553043CD504685023E35A0D78EE000D
:1007D0009B191B19384CA44663441C88A405A40D1E
:1007E0008B69A34222D31B1B8B618B69002B0CD11D
:1007F0000368AD005D192B88304E33408026B6016A
:100800005E402F4B33439BB22B8052060AD50268C1
:100810000B789B00D21815882A4B1D402A4B2B437E
:100820009BB21380002C04D1200070BD00238B618B
:10083000DBE700680A894969230002F079FCF3E7E5
:1008400004685023E35A0D78EE009B191B191F4CC6
:10085000A44663441C88A405A40D8B69A34227D336
:100860001B1B8B618B69002B0CD10368AD005D19DC
:100870002B88124E33408026B6015E40104B334326
:100880009BB22B8052060AD402680B789B00D218C8
:1008900015880C4B1D400C4B2B439BB21380002C36
:1008A000C2D000684A894969230002F041FCBBE7D5
:1008B00000238B61D6E7C046020400008FBFFFFF14
:1008C0008080FFFF8F8FFFFFC080FFFF06040000C6
:1008D00070B586B0041E66D0344BC35C002B07D0C5
:1008E000324B0322E254206801F08AFD00221BE013
:1008F000AA239B000022C25403F03AFCF0E7501CEC
:1009000083001918C900611801254D701918C90014
:100910000A5563180025DD7093009918C900611805
:100920008D63CD630D64C2B260688242E7D300215B
:1009300019E08A005318DB00E3181E006A36FF3600
:1009400000253570013E3170033635700D36356047
:100950007D33FF331D605218D200A2188132FF325E
:1009600015600131C9B28842E3D8206823001033F2
:100970006A4662CB62C222CB22C26168A268E36887
:1009800001F048FD24230022E254084B0132E254D6
:10099000E369012B02D0002006B070BD200000F0FA
:1009A000DDFE0020F8E70120F6E7C046A9020000BE
:1009B00070B50400AA239B00C35C012B0DD0AA25AF
:1009C000AD0001234355006801F010FD206801F0DF
:1009D000F7FF00236355002070BD0220FCE70000F4
:1009E00070B505000C001600530600D4EEE0026856
:1009F0005023D35A0978C8001B189B18AB4A944659
:100A000063441A889205920DA369934240D99B1AB8
:100A1000A361A369002B59D16378002B3BD12B68CC
:100A200050229A5A9B18C318A04A944663441A88C5
:100A30009205920D1A801A889D490A4392B21A8033
:100A40002B686278002A33D150329A5A9A18237848
:100A5000DB009B18974A944663441A889205920DCE
:100A60001A801A8892490A4392B21A802178280083
:100A700003F0B8FB760439D52A6823789B00D21896
:100A800011888D4B19408D4B0B439BB213802DE089
:100A90000023A361BDE7012BD2D12B6850229A5AC3
:100AA0009B18C018814B9C46604400230380C7E715
:100AB000012ADBD14F329A5A9B182278D200D318E0
:100AC0007C4A9446634400221A80CFE7760409D515
:100AD0002B68890059180888774B1840774B0343D7
:100AE0009BB20B802423E35C012B0FD02968237871
:100AF0009B00C9180B88724A1340302253409BB2A6
:100B0000704A13439BB20B80002070BD63699B1831
:100B10006361E369D318E361216A2369994221D3B0
:100B2000C91A21626278002A3AD12A685021515AA2
:100B300051182278D20052185C498C4662441188C0
:100B40008905890D11803E2B18D95909D80600D185
:100B500001391088890289B208435549014389B295
:100B600011801FE0002903D12423E1541300D9E7A9
:100B700000232422A35423620B00D3E7002B05D1CA
:100B800011884B48014389B211800BE05908D807FE
:100B900000D501311088890289B20143118001E03A
:100BA000012A06D028689BB22289616901F016FFEC
:100BB0009CE72A685021515A51182278D2005218C5
:100BC0003A498C46624499B21180EBE7026850239F
:100BD000D35A0978C8001B189B18364A94466344B8
:100BE0001A889205920DA369934241D39B1AA3617F
:100BF000A369002B68D16378002B3CD12B6850226D
:100C00009A5A9B181B18294A944663441A889205DD
:100C1000920D1A801A8826490A4392B21A802B68CC
:100C20006278002A34D150329A5A9B182278D20026
:100C30009B18204A944663441A889205920D1A80A4
:100C40001A881B490A4392B21A802178280003F0BF
:100C5000C9FA760400D549E72A6823789B00D218A0
:100C60001188154B1940154B0B439BB213803DE780
:100C70000023A361BCE7012BD1D12B6850229A5AE3
:100C80009B181B18094A9446634400221A80C6E741
:100C9000012ADAD14F329A5A9B182278D2009B1837
:100CA000044A9446634400221A80CEE702040000FE
:100CB0000080FFFF060400008F8FFFFF80C0FFFF52
:100CC000BF8FFFFF8080FFFF760409D42B68890067
:100CD00059180888344B1840344B03439BB20B809F
:100CE0002423E35C012B00D000E763699B18636158
:100CF000E369D318E361216A2369994221D3C91AB0
:100D000021622A686178002939D15031515A52182C
:100D10002178C900521826498C46624411888905F9
:100D2000890D11803E2B18D95909D80600D10139F7
:100D30001088890289B208431E49014389B2118093
:100D40001FE0002903D12423E1541300D9E7002335
:100D500023622422A3540B00D3E7002B05D1118872
:100D60001448014389B211800BE05908D80700D517
:100D700001311088890289B20143118001E0012903
:100D800006D028689BB26289616901F027FEADE652
:100D90004F31515A52182178C900521804498C46D3
:100DA000624499B21180ECE78F8FFFFF80C0FFFF94
:100DB000060400000080FFFFF8B5CE46474680B528
:100DC000040020684423C35A1BB2002B00DB8AE2D4
:100DD0004423C35A99B20F221D001540134200D07C
:100DE000CEE0C90664D503889AB21B0500D591E010
:100DF00012B2002AE5DA0388B84A1340802213436E
:100E00009BB2038020685023C35AB4225200A25CD4
:100E1000D2009B181B18B24A944663441B889B055A
:100E20009B0D22006932FF32D361002B0ED0516935
:100E300000290BD01500D28802F07AF96B69EA69B3
:100E40009B186B610021200003F0BDF92268138814
:100E500099B21B05B5D4C0239B0119409942B0D06B
:100E60005023D35AD2189E4B9C46624413889B054C
:100E70009B0D138023006933FF331B693E2B6DD913
:100E80005909DB0600D101391388890289B2194357
:100E9000944B0B439BB2138021680B88924A1340FA
:100EA000C02292015A40914B13439BB20B8088E7BA
:100EB00002888F4B1A408B4B13439BB203802168EF
:100EC0005023CB5A2822A25CD2009B185B18894A77
:100ED000944663441B889B059B0D6364E26BD318A7
:100EE000E3630021200003F07DF92423E35C002B61
:100EF00000D166E7236C002B00D062E72422A35CBC
:100F00002068802149420B43DBB2CC31435200239D
:100F1000A35456E75023C35AB4225200A25CD20015
:100F20009B181B186E4A944663441B889B059B0DB7
:100F300022006932FF32D361AC2189006118D28866
:100F400002F0F6F82268138864490B4080210B43B5
:100F50009BB21380200003F02BF932E7002B05D160
:100F6000138860490B439BB2138095E75908DB0750
:100F700000D501311388890289B20B4313808BE7B6
:100F8000AE00801903889FB21BB2002B45DB3B06E5
:100F900000D416E76B1C9C469B0062469918C9005A
:100FA0006118206880190688514A16404D4A32431C
:100FB00092B20280CB78012B00D105E1FB0500D570
:100FC0008CE120685023C35A6E1CB2009219D200E3
:100FD000165DF2009B181B18464A944663441B8812
:100FE0009B059B0DAA005219D200A218176C9F42B4
:100FF00000D85CE1AA005219D200A218FF1A1764A7
:10100000AA005219D200A218126C002A00D055E191
:101010003100200003F0E6F8D3E603882F4A13409E
:10102000802213439BB203807219D2006932FF32CF
:101030009046A0447319DB00E3187533FF331B7827
:10104000002B59D120685033C25A7319DB00E318C2
:101050006933FF331B78DB00D3181B18204A9446F2
:1010600063441B889B059A0D9146002B28D1AA004A
:101070005219D200A21810008530FF30036849468B
:101080004B440360083803684B4403608132FF32ED
:101090001368002B09D0AB005B19DB00E318793330
:1010A000FF331B68994200D389E0AB005B19DB007A
:1010B000E3186933FF331978200003F084F866E7FA
:1010C0007319DB00E3181A006F32FF3212887D3388
:1010D000FF3319684B4602F02BF8C8E78F0F00006A
:1010E000060400000080FFFF8FBFFFFF8080FFFF2E
:1010F0000F8FFFFF02040000AB005B19DB00E31859
:101100006C33FF331B78022B34D02168AB005B19A2
:10111000DB00E3186933FF331A78920089180888D6
:10112000734A1040734A024392B20A8020681B78C7
:101130009A0082181288520423D55022825ADB006A
:10114000D3181B186C4A944663441B889B059A0D60
:101150009146002B8BD0AB005B19DB00E3181A0023
:101160007132FF3212887D33FF3319684B4601F02C
:10117000DFFF7CE73A0041462000FFF721FB814674
:1011800075E75022825ADB00D3181B185B4A94463D
:1011900063441B889B059A0D9146002B00D166E79E
:1011A000AB005B19DB00E3181A007332FF321288C0
:1011B0007D33FF3319684B4601F0BAFF57E72068CB
:1011C000414601F01FFCE2E6AB005B19DB00E318CF
:1011D00000221A6434331B78002B1BD07F0635D5D0
:1011E0004B78002B1FD1236850229A5A9A186146D7
:1011F0008B005B18DB001B5DDB009B183E4A9446AE
:1012000063441A889205920D1A801A883C490A4351
:1012100092B21A800135AB005B19DB00195D20002A
:1012200002F0E0FFCDE5012BF4D1236850229A5A59
:101230009A18691C8B005B18DB001B5DDB009B1898
:101240002D4A9446634400221A80E3E72268691C11
:101250008B005B18DB00E3185B78002B15D1503353
:10126000D35AD2188B005B18DB001B5DDB009B1888
:10127000224A944663441A889205920D1A801A886D
:101280001F490A4392B21A80C4E7012BC2D14F33DF
:10129000D35AD218691C8B005B18DB001B5DDB0086
:1012A0009B18164A9446634400221A80B2E7AA00AB
:1012B0005219D200A21800271764A1E6AA005619F5
:1012C000F600A619F76BFF18F763766C5219D20077
:1012D000A2189B19536401F095FB72E53A002000B7
:1012E000FFF77EFB6DE50020C0BCB946B046F8BDF7
:1012F0008F8FFFFFC080FFFF020400000604000084
:101300000080FFFF70B50400AA239B00C35C012B83
:101310000CD0AA25AD00012343552333C1540068E6
:1013200001F046FB00236355002070BD0220FCE75E
:1013300070B50400006801F04DFB030418D44305A8
:101340001AD4430426D483042BD4C30430D4030515
:1013500051D4030600D565E0830500D590E0C005B3
:101360001ED5216844228B5A4A4803408B5217E00D
:101370002000FFF721FD13E0216844228B5A4648E4
:1013800003408B52200002F041FF00212000FFF7B4
:10139000B9FF05E0216844228B5A404803408B5234
:1013A00070BD216844228B5A3D4803408B52F7E7B9
:1013B00021684023CA5A04208243CA522168CA5A6B
:1013C00004308243CA52B8239B00E35C012B09D04E
:1013D000200002F03FFF216844228B5A314803402D
:1013E0008B52DDE7B8239B000022E254002120004D
:1013F00000F0C9F9ECE7216840228B5A082003432A
:101400009BB28B5220684421435A274D2B404352B4
:1014100021688B5A042003439BB28B52200002F0B8
:1014200007FFBDE7216844228B5A802083438B52FB
:10143000B8239B00E35C002B1ED12168043A8B5A31
:10144000042003439BB28B5221688B5A082003432C
:101450009BB28B52B8239B003F3AE254226854233C
:10146000D25A9208183B1340B9229200A35001218E
:10147000200000F088F993E7200002F0D9FE8FE702
:10148000216844228B5A094803408B52200002F005
:10149000B6FE85E7FFFEFFFFFFFBFFFFFFBFFFFF7D
:1014A000FFDFFFFFFFEFFFFFFFF7FFFFFFFDFFFF86
:1014B00070B504000D0049B2002925DB07262E4037
:1014C000B0008119C9006931FF3161188019C0006D
:1014D00020186A30FF300026067007202840087068
:1014E0000A61CB70022B19D0AA239B00E35C012B6D
:1014F00017D0AA25AD0001236355206800F09AFF9C
:1015000000236355002070BD07262E400136B00031
:101510008119C900611801264E70DEE700230B71A6
:10152000E2E70220EFE770B504000A004BB2002B9F
:1015300021DB0720084083001918C9006931FF31F9
:1015400061181B18DB00E3186A33FF3300201870A2
:10155000072313400B70AA239B00E35C012B14D0DC
:10156000AA25AD0001236355206801F0F5F800239A
:101570006355002070BD0720084001308300191812
:10158000C900611801204870E2E70220F2E7F8B5CF
:1015900007260E40B400A119C9006931FF31411876
:1015A000A519ED0045192F007D37FF373A602A0055
:1015B0008132FF3213600432002313606A35FF3535
:1015C0002B70A419E40004196934FF3426700068F4
:1015D00001F018FA0020F8BD07230B409900C91844
:1015E000C90040188530FF3000687047F0B5C64626
:1015F00000B507260E40771CBD00E919C9008846D2
:101600008044B400A419E4000419E26323644C226A
:101610009446A4444B3A61460A70A3640023636471
:1016200043465A70ED19ED002E540068414601F012
:10163000E9F9002080BCB846F0BD70B504000B008D
:1016400007220A4041688A422AD859B200291FDB82
:101650009800C118C9006931FF316118C018C00075
:1016600020186A30FF300023037001238B700A704A
:10167000AA239B00E35C012B14D0AA25AD00012313
:101680006355206801F020F900236355002070BDE8
:10169000501C83001918C900611801204870E4E744
:1016A0000120F4E70220F2E770B504000B000F22DE
:1016B0000A4041688A4230D85AB2002A23DB072008
:1016C000184082001118C9006931FF3161181218E1
:1016D000D200A2186A32FF320020107000228A70F5
:1016E000073213400B70AA239B00E35C012B16D03A
:1016F000AA25AD0001236355206801F00BF90023F2
:101700006355002070BD0720184001308200111879
:10171000C900611801204870E0E70120F2E70220CB
:10172000F0E710B50C060CD50724214001318C00E0
:101730006118C9004018002A0AD10273C380002032
:1017400010BD8C006118C9006931FF314018F2E703
:101750000122027303811B0C4381F0E70168BA2365
:101760009B000122C250083B0022C25454328B5AC3
:10177000012003439BB28B528B5A022003439BB23E
:101780008B5200207047704770B582B0041E00D1A4
:101790007FE20368DB072BD5B34B5A680C23134059
:1017A000042B1DD0B04B5A680C231340082B0ED0CD
:1017B0006368012B41D0002B56D1AB4B1A68AB4963
:1017C0000A401A601A68AA490A401A603BE0A64B10
:1017D0005B68C02252021340802252029342E7D13A
:1017E000A14B1B689B0303D56368002B00D153E218
:1017F00023689B0777D59C4B5B680C221A4262D00A
:10180000994B5A680C231340082B53D0E368002BE4
:1018100000D18AE0944A136801210B431360FEF75C
:1018200093FE0500904B1B689B0775D4FEF78CFE5A
:10183000401B0228F6D903202CE28B4A1168802332
:101840005B020B4313606368002B25D0FEF77CFE20
:101850000500854B1B689B03CAD4FEF775FE401B31
:101860006428F6D9032015E2052B09D07E4B1A68AF
:101870007E490A401A601A687D490A401A60E2E708
:10188000794B19688022D2020A431A6019688022B3
:1018900052020A431A60D6E7FEF756FE0500724B65
:1018A0001B689B03A4D5FEF74FFE401B6428F6D9A6
:1018B0000320EFE16C4B5B68C02252021340802290
:1018C00012029342A2D1684B1B689B0703D5E368C1
:1018D000012B00D0E2E164490B68F82293432269AE
:1018E000D20013430B6023681B0744D5E369002B28
:1018F0002ED05D4A536A01210B435362FEF724FE4A
:101900000500594B5B6A9B0735D4FEF71DFE401B53
:101910000228F6D90320BDE153490B68F82293430E
:101920002269D20013430B60DDE74F4A136801219F
:101930008B431360FEF708FE05004B4B1B689B07AB
:10194000D1D5FEF701FE401B0228F6D90320A1E104
:10195000454A536A01218B435362FEF7F5FD0500AA
:10196000414B5B6A9B0706D5FEF7EEFD401B022844
:10197000F6D903208EE123685B0700D480E03A4B60
:10198000DB69DB001DD4384BDA69802149050A4345
:10199000DA61DB690B400193019B0125354B1B6824
:1019A000DB0510D5A368012B21D0002B36D12E4B9F
:1019B0001A6A01218A431A621A6A03318A431A6237
:1019C0001AE00025EAE72B4A116880235B000B43ED
:1019D0001360FEF7B9FD0600264B1B68DB05E1D45A
:1019E000FEF7B2FD801B6428F6D9032052E11E4A9F
:1019F000136A01210B431362A368002B24D0FEF766
:101A0000A3FD0600184B1B6A9B0737D4FEF79CFD0D
:101A1000801B194B9842F5D903203BE1052B09D0D7
:101A2000114B1A6A01218A431A621A6A03318A43E6
:101A30001A62E1E70C4B1A6A04210A431A621A6A15
:101A400003390A431A62D7E7FEF77EFD0600064B0C
:101A50001B6A9B0712D5FEF777FD801B064B984249
:101A6000F5D9032016E1C04600100240FFFFFEFF3B
:101A7000FFFFFBFF0070004088130000012D39D0EC
:101A80002368DB0610D56369012B39D0053357D1A4
:101A9000894A536B04218B435363536BF4318B435B
:101AA000A169C9000B43536323689B066ED5824B23
:101AB0005A680C2313400C2B60D07F4B5A680C23C0
:101AC0001340082B53D0236A002B7ED07A4A516BE7
:101AD00080235B020B435363FEF736FD0500764B14
:101AE0005B6B9B0352D4FEF72FFD401B0228F6D9F7
:101AF0000320CFE0704AD36970490B40D361BFE740
:101B00006D4B5A6B04210A435A635A6B03390A43DB
:101B10005A63FEF719FD0500674B5B6B9B0706D404
:101B2000FEF712FD401B0228F6D90320B2E06249FD
:101B30004B6BF8229343A269D20013434B63B3E784
:101B40005D4B5A6B04210A435A635A6B03398A432B
:101B50005A63FEF7F9FC0500574B5B6B9B07A3D557
:101B6000FEF7F2FC401B0228F6D9032092E0524B0C
:101B70005B68C022520213409342A4D14E4B5B6B70
:101B80009B0303D5236A012B00D089E0636A002BF5
:101B900000D187E0484A51680C220A40082A60D0E8
:101BA000022B25D0444A136845490B401360FEF7C9
:101BB000CBFC0400404B1B689B0150D5FEF7C4FCD6
:101BC000001B0228F6D9032064E03B4A536B3D49D1
:101BD0000B405363FEF7B8FC0500374B5B6B9B0370
:101BE000D4D5FEF7B1FC401B0228F6D9032051E002
:101BF000314A136832490B401360FEF7A5FC05001B
:101C00002D4B1B689B0106D5FEF79EFC401B02284E
:101C1000F6D903203EE0284BDA6A0F218A43216B74
:101C20000A43DA625A6828490A40E16AA06A014315
:101C30000A435A601968802252040A431A60FEF768
:101C400083FC04001C4B1B689B0106D4FEF77CFC44
:101C5000001B0228F6D903201CE000201AE0002017
:101C600018E0012B20D0144B5A68D86AC0235B02BD
:101C70001340A16A8B4219D10F230340216B8B4281
:101C800016D1F0239B031A40E36A9A4212D1002036
:101C900000E0012002B070BD0120FBE70120F9E760
:101CA0000120F7E70020F5E70120F3E70120F1E745
:101CB0000120EFE70120EDE700100240FFFFFFEFFA
:101CC000FFFFFFFEFFFFFEFFFF7FC2FF10B5184BB7
:101CD0005A680C231340082B03D00C2B25D1154830
:101CE00010BD910C0F2319401348445C1049C96A78
:101CF0000B401249C95CC0235B021A4080235B027F
:101D00009A4208D0C0235B029A4209D00C48FEF7E1
:101D1000D7F96043E4E70A48FEF7D2F96043DFE70A
:101D20000448FEF7CDF96043DAE70548D8E7C04636
:101D300000100240006CDC02FC440008EC44000887
:101D400000127A0070B504000D00002800D186E072
:101D5000474B1A68012313408B420AD244490B684F
:101D6000012293432B430B600B681A40AA4200D018
:101D700077E023689A070ED55B0705D53D4A516881
:101D8000E023DB000B4353603A4A5368F0218B4356
:101D9000A1680B4353602368DB0735D56368012BCB
:101DA00009D0022B24D0032B28D0324A1268920784
:101DB00005D4012052E02F4A1268920353D52D49D1
:101DC0004A680320824313434B60FEF7BDFB0600C5
:101DD000284B5B680C221A4063689B009A4213D020
:101DE000FEF7B2FB801B244B9842F1D9032035E06B
:101DF000204A12689201E2D401202FE01D4A526B62
:101E00009203DCD4012029E0194B1A680123134006
:101E1000AB4209D916490B68012293432B430B604F
:101E20000B681A40AA4220D123685B0706D5114AE5
:101E3000536812490B40E1680B435360FFF746FFBC
:101E40000C4B5A6812090F2313400D4AD35CD8403B
:101E50000C4B18600320FEF733FB002070BD0120FF
:101E6000FCE70120FAE70120F8E70120F6E7C04689
:101E7000002002400010024088130000FFF8FFFF1E
:101E8000DC4400080000002070B582B00400036844
:101E9000DB0339D5484BDB69DB005FD4464BDA699D
:101EA000802149050A43DA61DB690B400193019BFC
:101EB0000125424B1B68DB0552D53F4B1A6AC023F4
:101EC0009B00110019401A4215D06368C02292008D
:101ED00013408B420FD0384B1A6A394911401E6AA1
:101EE0008020400230431862186A364E3040186233
:101EF0001962D20748D4304A136A31490B406168ED
:101F00000B431362012D4ED02368DB0706D52A4A06
:101F1000136B03218B43A1680B43136323689B0658
:101F200006D5254A136B10218B43E1680B431363DD
:101F300023689B0306D5204A136B80218B4361697C
:101F40000B43136323685B0532D51B4A136B402197
:101F50008B4321690B43136300202AE00025A8E787
:101F6000164A116880235B000B431360FEF7ECFAFE
:101F70000600124B1B68DB059FD4FEF7E5FA801BB9
:101F80006428F6D9032014E0FEF7DEFA06000A4BB7
:101F90001B6A9B07AFD4FEF7D7FA801B0A4B984207
:101FA000F5D9032005E0D36908490B40D361ABE7BD
:101FB000002002B070BDC04600100240007000401A
:101FC000FFFCFFFFFFFFFEFF88130000FFFFFFEF96
:101FD00030B5036A012293430362056A426883694C
:101FE0007324A3430C681C4302239D438B682B433B
:101FF000124DA84205D0124DA84202D0114DA84260
:1020000006D10825AB431D00CB682B430425AB4309
:102010000A4DA84205D00A4DA84202D0094DA84257
:1020200005D1094D2A404D6915438A692A4342600A
:1020300084614A684263036230BDC046002C01409F
:102040000044014000480140FFFCFFFF30B5036A37
:10205000164A13400362046A4268C3697325AB439E
:102060000D681D43124B1C408B681B022343114C0F
:10207000A04206D0104CA0420AD0104CA0420FD172
:1020800006E00F4C1C40CB681B0223430D4C234041
:102090000D4C22404C69240114438A6912012243E9
:1020A0004260C5614A68C263036230BDFFFEFFFF44
:1020B000FFFDFFFF002C01400044014000480140AB
:1020C000FFF7FFFFFFFBFFFFFFCFFFFF30B5036A06
:1020D000114A13400362046A4568C3690F4A1340FA
:1020E0000A6812021A430E4B1C408B681B032343E1
:1020F0000C4CA04205D00C4CA04202D00B4CA0428C
:1021000004D10B4C2C404D69AD0125434560C261A3
:102110004A680264036230BDFFEFFFFFFF8CFFFFE0
:10212000FFDFFFFF002C0140004401400048014058
:10213000FFBFFFFF03681E4A904206D08022D205EF
:10214000904202D01B4A904203D1702293434A68C6
:102150001343174A90420FD08022D20590420BD0F1
:10216000144A904208D0144A904205D0134A904233
:1021700002D0134A904203D1124A1A40CB6813434B
:10218000802293434A69134303608B68C3620B68E0
:102190008362074B984205D0084B984202D0084B07
:1021A000984201D10B690363012343617047C04624
:1021B000002C014000040040002000400044014089
:1021C00000480140FFFCFFFF70B5041E26D03D23F0
:1021D000C35C002B1CD03D2502236355210001C99F
:1021E000FFF7A8FF01234622A354083AA354013263
:1021F000A3540132A3540132A3540132A354013237
:10220000A3540132A3540132A3546355002070BD7E
:102210003C330022C254FEF703F9DCE70120F6E765
:1022200070B5036A102293430362026A45688369AA
:10223000144C23400C6824021C4320239A438B68CF
:102240001B011343104A904206D0104A90420BD013
:102250000F4A904210D107E0802293431E00CB68C2
:102260001B013343403A93430A4A15404A6992009E
:102270002A438D69AD001543456084614A688263D5
:10228000036270BDFF8CFFFF002C01400044014041
:1022900000480140FFF3FFFF70B504000D003C2330
:1022A000C35C012B00D16AE03C230121C154082A00
:1022B00050D01CD8002A38D0042A16D10068290032
:1022C000FFF7AEFF2268916980231B010B439361E6
:1022D000226893692B490B40936121688B692A69B5
:1022E000120213438B6100201BE0080019E00C2A46
:1022F00016D100682900FFF7E9FE2268D169802322
:102300001B010B43D3612268D3691E490B40D36183
:102310002168CB692A6912021343CB61002000E0D7
:1023200001203C230022E25470BD00682900FFF721
:102330004FFE2268936908210B43936122689369D9
:1023400004398B4393612268936929690B43936134
:102350000020E6E700682900FFF778FE2268D369CD
:1023600008210B43D3612268D36904398B43D361BD
:102370002268D36929690B43D3610020D1E7022089
:10238000D2E7C046FFFBFFFF30B53C23C35C012B07
:1023900025D03C230122C25401330132C2540368C8
:1023A0005C689D686E3294430A6822435A600368F1
:1023B0000C4A934206D08022D205934202D00A4AA8
:1023C000934204D1802295434A682A439A603D2370
:1023D0000122C254013B0022C254002030BD022021
:1023E000FCE7C046002C01400004004044230022CA
:1023F000C252043B014AC2520020704780BFFFFF17
:102400004022835A02490B40835200207047C04645
:102410007F40000084B00191029203934022012387
:10242000835200238352043283520C3283520020A1
:1024300004B07047F0B503000D78AD0045192A8847
:10244000B9480240C878022857D00AD8002850D08E
:10245000012804D18020C0000243002009E00120AF
:1024600007E0032804D1C020C0000243002000E0A0
:102470000120AE4C224392B22A800D78AA009A180D
:102480001688AB4F3E4035432C43A4B214800A7BE0
:10249000002A00D0A2E04A78002A3BD050229C5A61
:1024A0001C190A78D20012198024E400A446624460
:1024B000CC886408640014800A7892009A18148802
:1024C000640605D515883D409A4C2C43A4B214806F
:1024D000CA78012A13D00A7892009A18138896496C
:1024E0000B4020214B409BB290490B439BB2138081
:1024F000CEE08024A4002243BBE70020B9E70A789D
:1025000092009B1819888C4A1140884A0A4392B25B
:102510001A80BDE050255C5B1C190A78D2001219A4
:10252000864CA4466244CC886408640014805C5BDA
:102530001C190A78D2001219814CA44662441488EE
:10254000A405A40D14800C693E2C28D96509E40665
:1025500000D1013D1488AD02ADB22543794C2C4326
:10256000A4B214800A7892009A181488640406D5DC
:1025700015886F4C2540744C2C43A4B214800A7803
:10258000002A1ED192009A18138870490B40C0216E
:1025900089015940654B0B439BB2138078E0002CB6
:1025A00005D11488674D2C43A4B21480DAE765087E
:1025B000E40700D501351488AD02ADB22C43148078
:1025C000D0E792009A18138860490B408021890156
:1025D0005940564B0B439BB2138059E0CA78022AEC
:1025E00057D00A7892009A181588594C25404F4CBC
:1025F0002C43A4B2148050255C5B1C190A78D200CD
:1026000012198024E400A44662440C896408640022
:1026100014805C5B1C190A78D2001219474CA4463E
:1026200062444C896408640014804A78002A3BD1D3
:102630000A7892009A181488640406D515883C4CD0
:102640002540414C2C43A4B214800A7892009A1879
:102650001488640606D51588354C2540354C2C4326
:10266000A4B214800D78AD005D192C88374A14404F
:10267000C022920162402D4C224392B22A800A78F5
:1026800092009B181A882C490A401443A4B21C805B
:10269000F0BD0A7892009A181588254C25402D4CDB
:1026A0002C43A4B21480A6E70A7892009A181488E2
:1026B000640406D515881E4C2540234C2C43A4B237
:1026C00014800A7892009A181488640606D5158832
:1026D000174C2540174C2C43A4B21480CA78012A09
:1026E00017D00C78A4001C192288134D2A402025ED
:1026F0006A4092B20D4D2A4392B222800A7892002B
:102700009B181988114A1140084A0A4392B21A804C
:10271000BEE70A7892009A181588074C2540034CAA
:102720002C43A4B21480E9E78F89FFFF8080FFFF6C
:102730008F8FFFFFC080FFFFBF8FFFFF04040000EB
:10274000060400000080FFFF80C0FFFF8FBFFFFF77
:102750008F8EFFFF8081FFFF10B50B7B002B33D1E5
:102760004B78002B18D00B789B00C3181A885206A0
:1027700006D51C884E4A14404E4A224392B21A8013
:102780000B789B00C31819884B4A11404B4A0A43E7
:1027900092B21A80002010BD0B789B00C3181A88D3
:1027A000520406D51C88424A1440454A224392B23C
:1027B0001A800B789B00C3181988424A11403F4A7F
:1027C0000A4392B21A80E5E74B78002B37D10B7899
:1027D0009B00C3181A88520406D51C88344A14403A
:1027E000374A224392B21A800B789B00C3181A888A
:1027F000520606D51C882E4A14402E4A224392B215
:102800001A800B789B00C3181C88294A1440294A57
:10281000224392B21A800C78A40004192388294A12
:102820001340264A13439BB223800B789B00C318A6
:102830001988214801400A4392B21A80AAE70B780E
:102840009B00C3181A88520406D51C88184A1440E5
:102850001B4A224392B21A800B789B00C3181A8835
:10286000520606D51C88124A1440124A224392B2DC
:102870001A800B789B00C3181C880D4A1440104A1C
:10288000224392B21A800C78A400041923880A4AC1
:1028900013400A4A13439BB223800B789B00C01855
:1028A000038808490B401A4392B2028072E7C0467F
:1028B0008F8FFFFFC080FFFFBF8FFFFF8080FFFF74
:1028C00080C0FFFF8FBFFFFF4B78002B0ED00B782F
:1028D0009B00C01803880C4A1340102253409BB23F
:1028E0000A4A13439BB20380002070470B789B0079
:1028F000C0180388064A1340802252015A40034BF5
:1029000013439BB20380EFE7BF8FFFFF8080FFFF81
:102910008FBFFFFF10B50B7B002B3AD14B78002BFC
:102920001DD00B789B00C3181A88520606D51C8848
:10293000194A1440194A224392B21A80CB78012BCB
:1029400027D00A7892008218138815490B4020215D
:102950004B409BB213490B439BB2138019E00B7899
:102960009B00C3181A88520406D51C880A4A1440D2
:102970000D4A224392B21A800B789B00C01803883C
:102980000A4A1340C02292015A40064B13439BB29D
:102990000380002010BDC0468F8FFFFFC080FFFF67
:1029A000BF8FFFFF8080FFFF80C0FFFF8FBFFFFF53
:1029B000002902D14C238022C2520020704700001F
:1029C0005822835A02490B439BB28352002070471E
:1029D0000080FFFF4423C05A80B2704710B5013316
:1029E0005B0812188020C0008446624407E00C781F
:1029F000487800022043108002320231013B002B54
:102A0000F5D110BD70B505000C004A78012A35D00B
:102A10000B7B002B00D06DE28B6909698B4200D8DB
:102A200052E25B1AA3615023EA5AAA182378DB000A
:102A30009B18AB4A944663441A889205920D1A80FB
:102A40003E2900D844E24A09C90600D1013A198852
:102A5000920292B21143A34A0A4392B21A80237897
:102A60009B00ED182B88A04A1340C02292015A40C7
:102A70009E4B13439BB22B80002070BD8E69096969
:102A80008E4200D90E00237B002B2BD0E378022B43
:102A900048D0236A9B1B2362237899006918098810
:102AA000490600D4D0E1002A00D0BCE15032AA5A35
:102AB000AA18DB009B188A4A944663441A88920538
:102AC000920D1A803E2E00D89BE17209F10600D1CA
:102AD000013A1988920292B21143824A0A4392B291
:102AE0001A80AAE1B6B2E288616933002800FFF7D4
:102AF00075FF5023EA5AAA182378DB009B187C4AFA
:102B0000944663441E8022789200AA18138879495B
:102B10000B4030214B409BB274490B439BB2138056
:102B20000020AAE7236A994200D34FE123789B0053
:102B3000EB181988704A1140704A0A4392B21A8001
:102B4000236A9B1B236223789A00AA1812885206D4
:102B500000D495E06278002A2CD15032AA5AAA18E3
:102B6000DB009B185E4A944663441A889205920DD6
:102B70001A803E2E0CD97209F10600D1013A19884B
:102B8000920292B21143574A0A4392B21A8013E05A
:102B9000002E05D11A8853490A4392B21A800BE0DD
:102BA0007208F10700D501321988920292B20A43E5
:102BB0001A8001E0012A2DD06289B3B26169280030
:102BC000FFF70CFF63699B196361236A22699342D3
:102BD0002BD99B1B23626378002B3CD15033EA5ADC
:102BE000AA182378DB009B18414A944663441A884C
:102BF0009205920D1A803E2E1BD97209F10600D162
:102C0000013A1988920292B21143364A0A4392B2AB
:102C10001A8022E04F32AA5AAA18DB009B18304AC9
:102C200094466344B2B21A80C6E7002222621E00B4
:102C3000D1E7002E05D11A882A490A4392B21A8098
:102C40000BE07208F10700D501321988920292B2A6
:102C50000A431A8001E0012B06D02289B3B26169D0
:102C60002800FFF7BBFE4EE74F33EA5AAA18237835
:102C7000DB009B181E4A94466344B2B21A80ECE70C
:102C80006278002A3CD15032A95A6918DA005218E9
:102C9000174B9C46624413889B059B0D13803E2E68
:102CA0000CD97309F10600D1013B11889B029BB23C
:102CB00019430C4B0B439BB2138023E0002E05D12C
:102CC000138808490B439BB213801BE07308F1077C
:102CD00000D5013311889B029BB20B43138011E096
:102CE000060400000080FFFF8FBFFFFF8080FFFF12
:102CF00002040000BF8FFFFF8F8FFFFF8081FFFF67
:102D0000012A2DD02289B3B261692800FFF766FE3F
:102D100063699B196361236A226993422BD99B1BC8
:102D200023626378002B3CD15033EA5AAA182378E7
:102D3000DB009B18C04A944663441A889205920DA2
:102D40001A803E2E1BD97209F10600D1013A19886A
:102D5000920292B21143B94A0A4392B21A8022E017
:102D60004F32AA5AAA18DB009B18B54A944663440E
:102D7000B2B21A80C6E7002222621E00D1E7002EFE
:102D800005D11A88AD490A4392B21A800BE0720845
:102D9000F10700D501321988920292B20A431A80D3
:102DA00001E0012B06D06289B3B261692800FFF708
:102DB00015FEA8E64F33EA5AAA182378DB009B18C1
:102DC0009D4A94466344B2B21A80ECE7227892009E
:102DD000AA1810889B4908409B49014389B2118079
:102DE0005022A95A69182278D200521894498C4668
:102DF00062449BB21380228961692800FFF7EEFDCF
:102E000081E6002E05D11A888C490A4392B21A80B5
:102E100013E07208F10700D501321988920292B2CC
:102E20000A431A8009E05022AA5AAA18DB009B180C
:102E3000814A94466344B2B21A806289B3B261692E
:102E40002800FFF7CBFD5EE6002A2CD15032AA5AAB
:102E5000AA18DB009B187A4A944663441A889205A4
:102E6000920D1A803E2E0CD97209F10600D1013A5A
:102E70001988920292B21143704A0A4392B21A80A0
:102E80001BE0002E05D11A886C490A4392B21A80C1
:102E900013E07208F10700D501321988920292B24C
:102EA0000A431A8009E05022AA5AAA18DB009B188C
:102EB000634A94466344B2B21A802289B3B261690C
:102EC0002800FFF78BFD1EE60022A2611900AAE58B
:102ED000002905D11A8859490A4392B21A80BEE5E1
:102EE0004A08C90700D501321988920292B20A43F2
:102EF0001A80B4E5CB78022B48D0012B00D00BE12F
:102F000089692369994200D8CFE0C91AA161002AD2
:102F10001BD15032A95A69182278D2005218484958
:102F20008C46624411888905890D11803E2B00D89A
:102F3000BFE05909D80600D101391088890289B249
:102F400008433E49014389B211806278002A00D0CB
:102F5000D3E05032A95A69182278D2005218364963
:102F60008C46624411888905890D11803E2B00D85A
:102F7000B1E05909DB0600D101391388890289B211
:102F800019432E4B0B439BB2138068E5002A1AD1DC
:102F90004E33C25A82180B78DB009B18284A9918C6
:102FA0000B889B059B0D0B8022693E2A2AD9530969
:102FB000D20600D1013B0A889B029BB21A431F4BE9
:102FC00013439BB20B806378002B49D15033EA5AEC
:102FD000AA182378DB009B18174A99180B889B05C1
:102FE0009B0D0B8022693E2A1ED95309D20600D1BF
:102FF000013B0A889B029BB21A43104B13439BB2BE
:103000000B802FE0002A05D10B880C4A13439BB29A
:103010000B80D8E75308D20700D501330A889B02FA
:103020009BB213430B80CEE7002A0FD10B88034AD3
:1030300013439BB20B8015E0060400000080FFFFE5
:10304000020400008F8EFFFF8080FFFF5308D2072D
:1030500000D501330A889B029BB213430B8001E029
:10306000012B16D0E369002B00D1F8E423789B00F4
:10307000EB181A8829490A408A4202D0002A00D057
:10308000EDE41988264A1140264A0A4392B21A8072
:10309000E5E44F33EA5AAA182378DB009B18224A4A
:1030A00094466344228A1A80DCE70023A3610B0064
:1030B0002DE7002B05D111881C48014389B21180EE
:1030C00043E75908D80700D501311088890289B231
:1030D0000143118039E7002B05D1138813490B43B5
:1030E0009BB21380BBE45908DB0700D5013113887C
:1030F000890289B20B431380B1E4012A00D0AEE407
:103100004F32A95A69182278D200521806498C46C3
:1031100062449BB21380A2E40120AEE44040000070
:103120008F8FFFFFC080FFFF060400000080FFFFBD
:1031300010B55C0812188020C0008446624406E086
:10314000108802320870000A48700231013C002CDD
:10315000F6D1DB0701D513880B7010BD10B5AE2377
:103160009B00C4580433C358002B0DD0802292001A
:10317000A05CFF2808D09B68044AA25C2100984705
:1031800080239B00FF22E254002010BD01020000BA
:1031900043230380004870475000002043230380EE
:1031A0000048704794000020432303800048704784
:1031B0000C0000200A230380004870471001002003
:1031C00070B50400AE25AD00465901F0FFF8832329
:1031D0009B00F0506359002B0BD0AF239B00E358AA
:1031E000DB6883229200B118083AB0589847002053
:1031F00070BD0220FCE770B504000D00AE239B00FB
:10320000C6580833C258002E21D08B005B189B0093
:10321000C318D869002808D08B005B18DB00D218CF
:10322000916BFCF7D3FF002905D085239B0000227A
:10323000F250002070BDAB005B199B00E318002228
:10324000DA6100232900200001F0AEF8F1E7022046
:10325000F0E70000F0B583B005000C00AE239B0042
:10326000C75800236A46D37101AA13800B786022E5
:1032700016001E401A422BD0202E5BD1CA88002A8D
:103280001DD05BB2002B0DDAAF239B00C3589B68A7
:10329000487839009847E2883900280000F025FE78
:1032A00000264AE04A7880239B00FA548A79244B0E
:1032B000FA54CA88390000F02EFE00263DE0AF2304
:1032C0009B00C3589B68487800229847002634E04A
:1032D0004F780A2F16D00B2F23D0002F03D000F0E9
:1032E000AFFA022629E0A7239B00C35C032B03D07F
:1032F00000F0A6FA022620E0022201A900F0F5FD66
:103300003E001AE0A7239B00C35C032B03D000F010
:1033100097FA022611E001226B46D91D00F0E5FD67
:103320000BE0A7239B00C35C032B06D000F088FAB8
:10333000022602E000F084FA0226300003B0F0BD5D
:103340000102000070B50400812100F0F0FF0025AB
:10335000E5620121200000F0EAFFB6235B00E550A2
:103360008221200000F0E3FF2564AE239B00E35898
:10337000002B0BD0AF239B00E3585B689847AE252A
:10338000AD00605901F02EF800236351002070BD9C
:1033900070B50400037C002B3AD18026B6003300C0
:1033A0000222812100F0B7FF0125E56233000222ED
:1033B0000121200000F0AFFFB6235B00E550082399
:1033C00003228221200000F0A6FF0123236487202E
:1033D000800001F003F80500AE239B00E0500028B8
:1033E00032D00433E3581B689847002385229200AB
:1033F000AB500432AB50267C002E1AD18033143AE5
:10340000AA589B000121200000F0D7FF300070BDBA
:1034100040230222812100F07EFF0125E562402346
:1034200002220121200000F076FFB6235B00E55068
:10343000C5E781239B00EA58C53BFF3B01212000E3
:1034400000F0BBFF0026E1E70126DFE7002904D0FA
:10345000AF239B00C150002070470220FCE7AE2341
:103460009B00C358822080001950842189005A5043
:1034700000207047AE239B00C258B43BD1500020BF
:10348000704710B5AE239B00C258002A15D0037CAC
:10349000002B09D180338121890052589B000121E2
:1034A00000F08BFF002010BD81239B00D258C53B4C
:1034B000FF3B012100F081FFF4E70220F3E710B5A4
:1034C000002816D0AD239B00C358002B03D0AD239A
:1034D0009B000024C450002902D0AC239B00C150A3
:1034E000A7239B000121C154027000F0C9FE0020F7
:1034F00010BD0220FCE7002904D0AD239B00C15081
:10350000002070470220FCE710B500F0FBFE002011
:1035100010BD10B5AD239B00C358002B06D01B680F
:103520009847002800D110BD0220FCE70220FAE7EE
:1035300010B5AD239B00C3585B689847002010BDB1
:1035400070B50400AA239B00C518280000F064F998
:10355000A5239B000122E250114BE25A163BE25098
:103560001033E15C1F230B40012B0FD0022B12D034
:10357000002B05D07F239943200000F0E1FE03E0FB
:103580002900200000F022FB002070BD290020004F
:1035900000F052FBF8E72900200000F080FBF3E781
:1035A000AE02000070B505000C001100002C38D1EF
:1035B000A5239B00C358032B03D0052B28D0200044
:1035C0003DE002005532FF32D368126993420DD9B3
:1035D0009B1A5530FF30C3609A4205D99AB2280031
:1035E00000F0AAFC20002AE092B2F8E7AD239B008D
:1035F000C3581B69002B04D0A7229200825C032AC7
:1036000004D0280000F0A0FC200018E09847F8E75C
:10361000A5239B000022C250002100F091FE200053
:103620000DE0AD239B00C3589B69002B08D0A72257
:103630009200825C032A05D121009847002070BDCA
:103640000220FCE70220FAE7F8B505000C001100A3
:10365000002C5BD1A5239B00C358022B0ED0042B5A
:1036600001D0002B03D18021280000F069FEA8239F
:103670009B00EB5C012B43D02000F8BD026A466A38
:10368000B24220D8C76931003800FCF79FFD0029FD
:1036900006D1BE4204D8A6239B00EB589F421ED3FE
:1036A000AD239B00EB58DB68002B04D0A7229200CF
:1036B000AA5C032A21D08021280000F041FE2800C6
:1036C00000F04EFCD3E7921B026292B200F01BFCAA
:1036D000002300220021280000F06FFEC7E700222F
:1036E000280000F010FCA6239B000022EA500023D3
:1036F0000021280000F061FEB9E728009847DAE7CA
:10370000A8239B000022EA542000B6E7AD239B00CB
:10371000C3585B69002B08D0A7229200825C032A61
:1037200005D1210098470020A7E70220A5E7022045
:10373000A3E770B5040040230022002100F0EBFD58
:103740000125AC235B00E55040260C33E650253BB9
:10375000FF3B00228021200000F0DDFDA5616662B4
:10376000A7239B00E5540023A5229200A350636089
:103770001032A350AE239B00E358002B06D0AD239C
:103780009B00E3585B68002120009847002070BD33
:103790000174002070470000A7239B00C15C034A0E
:1037A00081540422C25400207047C0469D0200008C
:1037B000A7239B00C35C042B01D000207047024B61
:1037C000C25C013BC254F8E79D02000010B5A7237C
:1037D0009B00C35C032B01D0002010BDAD239B00D8
:1037E000C358DB69002BF7D09847F5E703000020AA
:1037F00002E00130C0B201331A78002AF9D17047D3
:1038000010B54B88012B00D010BDA9239B000122CD
:10381000C25000F099FBF7E70B7803704B784370C8
:103820008B78CA7812029B1843800B794A7912026E
:103830009B1883808B79CA7912029B18C3807047CA
:1038400010B50400802100F07BFD0021200000F075
:1038500077FD10BD30B583B005000C006B4600222B
:10386000DA804A88130A072B00D9B6E09B00654925
:10387000CB589F46AC239B00C3581B68007C6A460C
:10388000911D98476B4606331B88002B03D0E288B6
:10389000002A00D0A6E0E388002B00D1AEE003B000
:1038A00030BD037C002B09D1AD239B00C3589B6A1C
:1038B0006A46901D984702234370E3E7AD239B00BF
:1038C000C358DB6A6A46901D984702234370D9E7C4
:1038D000D2B2052A5DD892004B4B9B589F46AC2331
:1038E0009B00C3585B68002B04D0007C6A46911D86
:1038F0009847C7E72100FFF7A3FFD0E7AC239B0061
:10390000C3589B68002B04D0007C6A46911D9847E1
:10391000B8E72100FFF794FFC1E7AC239B00C35831
:10392000DB68002B04D0007C6A46911D9847A9E70C
:103930002100FFF785FFB2E7AC239B00C3581B694A
:10394000002B04D0007C6A46911D98479AE721001D
:10395000FFF776FFA3E7AC239B00C3585B69002BFE
:1039600004D0007C6A46911D98478BE72100FFF741
:1039700067FF94E7AC239B00C3589B69002B04D0DE
:10398000007C6A46911D98477CE72100FFF758FFAD
:1039900085E72100FFF754FF81E7037C002B07D167
:1039A000AD239B00C3585B6B6A46901D984769E73F
:1039B0002100FFF745FF72E7037C002B09D1AD23FF
:1039C0009B00C3581B6B6A46901D984707234370A2
:1039D00058E72100FFF734FF61E721002800FFF7D7
:1039E0002FFF5CE7191C934200D9111C8AB26B4669
:1039F000D9800100280000F078FA4CE7280000F098
:103A0000A3FA4CE70C4500082C45000870B50400EB
:103A10008B88002B23D1CB88002B20D14B887F2B88
:103A20001DD87F251D40A7239B00C35C032B0ED010
:103A30000D4BC554290000F0AEFC200000F084FAC4
:103A4000002D07D0A7239B000222E2540AE0FFF7D3
:103A5000F7FE07E0A7239B000122E25402E02000CA
:103A6000FFF7EEFE70BDC0469E02000070B5040078
:103A70000D0089782A4B197001290FD8A7239B00C4
:103A8000C35C022B0ED0032B23D02900FFF7D8FEF6
:103A9000234B19782000FFF74BFD02E02900FFF7C8
:103AA000CFFE70BD002911D04160A7239B000322E7
:103AB000C254FFF72EFD022803D0200000F044FA84
:103AC000EFE729002000FFF7BBFEEAE700F03CFA31
:103AD000E7E7002911D0436899421ED0D9B2FFF719
:103AE00027FD0F4B197861602000FFF712FD0228B7
:103AF0000ED0200000F028FAD3E7A7239B00022273
:103B0000C2544160FFF714FD200000F01DFAC8E721
:103B100029002000FFF794FEC3E700F015FAC0E784
:103B2000E401002010B5CB88012B0BD1A7239B000B
:103B3000C35C022B09D9032B09D1011D012200F01E
:103B4000D4F901E0FFF77CFE10BD002B02D1FFF796
:103B500077FEF9E70023836001000831012200F0BD
:103B6000C4F9F1E710B5A7239B00C35C013B022B0E
:103B700014D8CB88022B0ED10123C360A9239B004C
:103B8000C358002B01D00323C36001000C31022273
:103B900000F0ABF910BDFFF753FEFBE7FFF750FE57
:103BA000F8E710B5A7239B00C35C013B022B0AD8A2
:103BB0004B88012B00D010BDA9239B000022C250CE
:103BC00000F0C2F9F7E7FFF73BFEF4E710B50A781B
:103BD00060231340202B06D0402B04D0002B09D0AB
:103BE000FFF72EFE04E0AD239B00C3589B68984767
:103BF000002010BD4B78092B18D89B000D4AD358D4
:103C00009F46FFF727FEF3E7FFF700FFF0E7FFF718
:103C10002DFFEDE7FFF786FFEAE7FFF7A3FFE7E7F2
:103C2000FFF7EEFDE4E7FFF7BCFFE1E7FFF708FE73
:103C3000DEE7C0464445000870B505000C000A7870
:103C400060231340202B07D0402B05D0002B03D03E
:103C5000FFF7F6FD002070BDA7239B00EB5C013B46
:103C6000022B17D82379012B0FD8AD239B00EB58DB
:103C70009B68210028009847E388002BEAD10028A0
:103C8000E8D1280000F060F9E4E721002800FFF700
:103C9000D7FDDFE721002800FFF7D2FDDAE770B596
:103CA000050088880A790B7860241C40202C08D0F5
:103CB000402C06D0002C0DD02800FFF7C1FD0024B9
:103CC00006E0AD239B00EB589B6828009847002432
:103CD000200070BD202C0AD04E78012E3ED0032E3D
:103CE0000DD0002E64D02800FFF7AAFDF0E7AD2329
:103CF0009B00EB589B68280098470400E8E7A7233F
:103D00009B00EB5C022B05D0032B14D02800FFF79F
:103D100097FDDDE7002A01D0802A03D12800FFF7B4
:103D20008FFDD5E71100280000F00AFB8021280054
:103D300000F006FBCCE74B88002B06D1002A04D00C
:103D4000802A02D0CB88002B03D0280000F0FCF89A
:103D5000BEE71100280000F0F3FAF6E7A7239B0066
:103D6000EB5C022B05D0032B14D02800FFF768FD75
:103D7000AEE7002A01D0802A03D12800FFF760FDBA
:103D8000A6E71100280000F0DBFA8021280000F0EF
:103D9000D7FA9DE74B88002B9AD1530603D1280010
:103DA00000F0D2F894E71100280000F0D2FAF6E70C
:103DB000A7239B00EB5C022B06D0032B29D0280005
:103DC000FFF73EFD340083E7002A01D0802A12D19C
:103DD000000615D47F2313409900C918890051317A
:103DE000FF316918043100230B600222280000F023
:103DF0007CF834006CE72800FFF722FD340067E709
:103E00007F2313409900C9188900103169180431C3
:103E1000E9E744B2000622D40F20104083001B18AB
:103E20009B00EB185933FF331B68002B25D0002C67
:103E300028DB7F2313409C00E418A4005134FF3496
:103E40002C190434002A01D0802A24D100232360B5
:103E500002222100280000F048F8340038E70F2043
:103E6000104083001B189B00EB189B69002BDED1D0
:103E70002800FFF7E5FC34002AE72800FFF7E0FC04
:103E8000340025E77F2313409C00E418A40010347D
:103E90002C190434D6E71100280000F063FA00283A
:103EA00002D001232360D3E700232360D0E770B55D
:103EB00004000D001600002816D0FFF797FC013013
:103EC00043009BB233802B7003236B70013B08E0EF
:103ED00001345A1CD2B2E8540233DBB2AA180021D2
:103EE000117020780028F3D170BD10B51300A52201
:103EF000920002248450C36103620A00002100F092
:103F000053FA002010BD10B513000A00002100F084
:103F10004BFA002010BD10B51300A5229200032417
:103F20008450393AFF3A8350043283500A0000210A
:103F300000F043FA002010BD10B513000A00002164
:103F400000F03BFA002010BD10B5A5239B00042211
:103F5000C25000230022002100F026FA002010BDEC
:103F600010B5A5239B000522C2500023002200218A
:103F700000F023FA002010BD10B5124912480022AB
:103F8000FFF79DFA002811D110490F48FFF7B3FA47
:103F900000280ED10E490C48FFF758FA00280BD123
:103FA0000948FFF7B1FA002809D110BDFCF77EF9E6
:103FB000EAE7FCF77BF9EDE7FCF778F9F0E7FCF7C7
:103FC00075F9F2E760010020E8010020D800002028
:103FD0001C010020002070470020704710B5010030
:103FE000044C2000FFF746FA2000FFF74AFA0020B1
:103FF00010BDC046E801002010B50649064C00225D
:104000002000FFF72CFA05492000FFF733FA0020C3
:1040100010BDC046AC040020E8010020EC040020E4
:1040200012230B80004870474C01002004230B80B2
:10403000004870474801002030B500230AE05D00C9
:1040400037344C5500015C0001340C1900252570F3
:104050000133DBB2934206D2040F092CEFD85D0086
:1040600030344C55EEE730BD70B50B4B18680B4B38
:104070001D680B4B1B68C018002800D170BD094C8F
:1040800008222100FFF7D8FF210010310422280068
:10409000FFF7D2FFF2E7C046ACF7FF1FB0F7FF1FF4
:1040A000B4F7FF1F2E01002010B51A230B80FFF775
:1040B000DBFF014810BDC0462C01002010B50A00EE
:1040C000002805D105490648FFF7F1FE034810BD59
:1040D00002490348FFF7EBFEF8E7C0462C05002035
:1040E0006C45000810B50A00034C04482100FFF796
:1040F000DEFE200010BDC0462C0500207C450008D7
:1041000010B50A00002805D105490648FFF7CFFE83
:10411000034810BD02490348FFF7C9FEF8E7C0464F
:104120002C0500208845000810B50A00002805D19C
:1041300005490648FFF7BBFE034810BD0249034886
:10414000FFF7B5FEF8E7C0462C05002094450008AF
:10415000022804D005D8002800D002207047012092
:10416000FCE70220FAE710B5FCF7EEF810BD0000FE
:1041700000B583B002680C4B9A4201D003B000BD79
:104180000A4BDA69802109040A43DA61DB690B40D2
:104190000193019B002200211F20FCF739FA1F2008
:1041A000FCF73AFAEAE7C046005C00400010024023
:1041B00010B50100BC239B00C058403B9C466144A5
:1041C000FFF7BEF910BD10B50300BC229200805865
:1041D0008A005218D2009B187D33FF331A68FFF70C
:1041E000E1F910BD10B50300BC22920080588A008E
:1041F0005218D2009B18DA6BFFF726FA10BD10B5E3
:10420000BC239B00C058FFF7E1FA10BD70B5040055
:104210008368022B09D1BC25AD0060590121FFF74D
:10422000B7FA6059FFF785FA70BDFCF73FF8F2E77F
:1042300010B50400BC239B00C058FFF7ADFAA3697A
:10424000002B04D0024A136906210B43136110BDF1
:1042500000ED00E010B504008369002B05D1BC23FC
:104260009B00E058FFF7A4FA10BD044A1369062129
:104270008B431361FFF777FFF1E7C04600ED00E0E5
:1042800070B504001D48BC239B00C450303BE05077
:104290001B4B036008234360063B836003610023DC
:1042A0008361C3610362FCF713FB002823D1B025AF
:1042B000AD006059182300220021FDF732FA605941
:1042C000582300228021FDF72CFA6059C0230022D8
:1042D0008121FDF726FA605988235B000022012125
:1042E000FDF71FFA605980235B0000228221FDF751
:1042F00018FA002070BDFBF7D9FFD8E76C07002043
:10430000005C004010B5B0239B00C058FCF750FB88
:10431000FFF71EFF10BD10B514001A00B0239B005C
:10432000C0582300FDF7C4F8FFF712FF10BD10B509
:10433000B0239B00C058FDF7F6F8FFF709FF10BD4A
:1043400010B5B0239B00C058FDF777F9FFF700FFC9
:1043500010BD10B5B0239B00C058FDF7A5F9FFF7BD
:10436000F7FE10BDB0239B00C3584AB2002A09DBF8
:104370007F2211408A005218D2009B186B33FF3302
:10438000187870477F22114001318A005218D200FC
:104390009B189878F5E710B5B0239B00C058FCF740
:1043A000B1FFFFF7D5FE10BD10B5B024A400005931
:1043B000FDF71CF9FFF7CCFE10BD10B5B024A4002A
:1043C0000059FDF7E4F8FFF7C3FE10BD10B5B023A8
:1043D0009B00C058FDF700F910BD00000048704771
:1043E0004C0500207047000013488546FCF766F82E
:1043F00012480168090E124A914205D1114812492A
:10440000016012481249016012481349134A0023FF
:1044100002E0D458C4500433C4188C42F9D3104A73
:10442000104C002301E013600432A242FBD300F0E1
:1044300025F8FBF7C2FFFEE700180020040000008B
:104440001F000000181002400100000000000140A1
:1044500000000000000000207C010020AC450008A6
:104460007C010020600A0020FEE7030082189342CE
:1044700000D1704719700133F9E7000070B50026CC
:104480000C4C0D4D641BA410A64209D1002600F06F
:1044900019F80A4C0A4D641BA410A64205D170BD40
:1044A000B300EB5898470136EEE7B300EB58984756
:1044B0000136F2E7A4450008A4450008A845000815
:1044C000A4450008F8B5C046F8BC08BC9E46704735
:0C44D000F8B5C046F8BC08BC9E4670471A
:1044DC0000000000000000000102030406070809A8
:1044EC000102030405060708090A0B0C0D0E0F1038
:1044FC0002030405060708090A0B0C0D0E0F101019
:10450C00DA39000874380008A2380008D0380008DE
:10451C00DA390008DA3900089A390008B839000885
:10452C00DE380008FC3800081A3900083839000851
:10453C0056390008743900081A3C0008263C00085B
:10454C002C3C0008203C00082C3C0008083C0008CF
:10455C00023C00082C3C0008143C00080E3C0008EF
:10456C00427573696E657373204361726400000059
:10457C005261726954656368000000004344432033
:10458C00436F6E666967000043444320496E74654F
:08459C00726661636500000016
:0445A4000102000808
:0445A800D90100082D
:1045AC0000127A000100000004000000090743001B
:1045BC00020104C0320904000001020201000524BA
:1045CC000010010524010001042402020524060048
:1045DC00010705820308001009040100020A00000B
:1045EC0000070501024000000705810240000000A1
:1045FC0009024300020100C032090400000102025A
:10460C00010005240010010524010001042402020C
:10461C0005240600010705820308001009040100A7
:10462C00020A000000070501024000000705810294
:10463C004000000009024300020100C032090400DE
:10464C0000010202010005240010010524010001F3
:10465C000424020205240600010705820308001049
:10466C0009040100020A0000000705010200020013
:10467C000705810200020000913300084533000851
:10468C0055320008000000005D310008F7310008C9
:10469C00C131000800000000000000000000000014
:1046AC009D31000891310008A9310008B53100088E
:1046BC000A0600020000004001000000F93F00085B
:1046CC00D53F0008D93F0008DD3F00081A03000061
:1046DC0000000000000000000000000000000000CE
:1046EC000000000000000000040309041201000295
:1046FC000202004083044057000201020301000043
:10470C00214000082D400008E5400008BD4000088D
:0C471C00A94000080141000829410008E4
:04000005080043E9C3
:00000001FF
